{
  "contractName": "Vesting",
  "abi": [
    {
      "inputs": [
        {
          "internalType": "address[]",
          "name": "_payees",
          "type": "address[]"
        },
        {
          "internalType": "address",
          "name": "_token",
          "type": "address"
        }
      ],
      "stateMutability": "nonpayable",
      "type": "constructor"
    },
    {
      "anonymous": false,
      "inputs": [
        {
          "indexed": true,
          "internalType": "address",
          "name": "previousOwner",
          "type": "address"
        },
        {
          "indexed": true,
          "internalType": "address",
          "name": "newOwner",
          "type": "address"
        }
      ],
      "name": "OwnershipTransferred",
      "type": "event"
    },
    {
      "anonymous": false,
      "inputs": [
        {
          "indexed": false,
          "internalType": "uint256",
          "name": "_amount",
          "type": "uint256"
        },
        {
          "indexed": true,
          "internalType": "address",
          "name": "payee",
          "type": "address"
        }
      ],
      "name": "TokenReleased",
      "type": "event"
    },
    {
      "anonymous": false,
      "inputs": [
        {
          "indexed": false,
          "internalType": "uint256",
          "name": "_startTime",
          "type": "uint256"
        },
        {
          "indexed": false,
          "internalType": "uint256",
          "name": "_stopTime",
          "type": "uint256"
        },
        {
          "indexed": false,
          "internalType": "uint256",
          "name": "_duration",
          "type": "uint256"
        }
      ],
      "name": "VestingStarted",
      "type": "event"
    },
    {
      "inputs": [],
      "name": "duration",
      "outputs": [
        {
          "internalType": "uint256",
          "name": "",
          "type": "uint256"
        }
      ],
      "stateMutability": "view",
      "type": "function",
      "constant": true
    },
    {
      "inputs": [],
      "name": "owner",
      "outputs": [
        {
          "internalType": "address",
          "name": "",
          "type": "address"
        }
      ],
      "stateMutability": "view",
      "type": "function",
      "constant": true
    },
    {
      "inputs": [
        {
          "internalType": "address",
          "name": "",
          "type": "address"
        }
      ],
      "name": "payees",
      "outputs": [
        {
          "internalType": "bool",
          "name": "",
          "type": "bool"
        }
      ],
      "stateMutability": "view",
      "type": "function",
      "constant": true
    },
    {
      "inputs": [],
      "name": "payeesLength",
      "outputs": [
        {
          "internalType": "uint256",
          "name": "",
          "type": "uint256"
        }
      ],
      "stateMutability": "view",
      "type": "function",
      "constant": true
    },
    {
      "inputs": [],
      "name": "renounceOwnership",
      "outputs": [],
      "stateMutability": "nonpayable",
      "type": "function"
    },
    {
      "inputs": [],
      "name": "startTime",
      "outputs": [
        {
          "internalType": "uint256",
          "name": "",
          "type": "uint256"
        }
      ],
      "stateMutability": "view",
      "type": "function",
      "constant": true
    },
    {
      "inputs": [],
      "name": "stopTime",
      "outputs": [
        {
          "internalType": "uint256",
          "name": "",
          "type": "uint256"
        }
      ],
      "stateMutability": "view",
      "type": "function",
      "constant": true
    },
    {
      "inputs": [],
      "name": "tokenToBeReleasedPerDuration",
      "outputs": [
        {
          "internalType": "uint256",
          "name": "",
          "type": "uint256"
        }
      ],
      "stateMutability": "view",
      "type": "function",
      "constant": true
    },
    {
      "inputs": [
        {
          "internalType": "address",
          "name": "",
          "type": "address"
        }
      ],
      "name": "totalTokenWithdrawn",
      "outputs": [
        {
          "internalType": "uint256",
          "name": "",
          "type": "uint256"
        }
      ],
      "stateMutability": "view",
      "type": "function",
      "constant": true
    },
    {
      "inputs": [
        {
          "internalType": "address",
          "name": "newOwner",
          "type": "address"
        }
      ],
      "name": "transferOwnership",
      "outputs": [],
      "stateMutability": "nonpayable",
      "type": "function"
    },
    {
      "inputs": [
        {
          "internalType": "uint256",
          "name": "_stopTime",
          "type": "uint256"
        },
        {
          "internalType": "uint256",
          "name": "_duration",
          "type": "uint256"
        }
      ],
      "name": "startVesting",
      "outputs": [],
      "stateMutability": "nonpayable",
      "type": "function"
    },
    {
      "inputs": [],
      "name": "calculateTotalVestedAmount",
      "outputs": [
        {
          "internalType": "uint256",
          "name": "",
          "type": "uint256"
        }
      ],
      "stateMutability": "view",
      "type": "function",
      "constant": true
    },
    {
      "inputs": [
        {
          "internalType": "address",
          "name": "_payee",
          "type": "address"
        }
      ],
      "name": "release",
      "outputs": [],
      "stateMutability": "nonpayable",
      "type": "function"
    },
    {
      "inputs": [
        {
          "internalType": "address",
          "name": "_payee",
          "type": "address"
        }
      ],
      "name": "tokenToBeReleased",
      "outputs": [
        {
          "internalType": "uint256",
          "name": "",
          "type": "uint256"
        }
      ],
      "stateMutability": "view",
      "type": "function",
      "constant": true
    },
    {
      "inputs": [],
      "name": "deposit",
      "outputs": [],
      "stateMutability": "payable",
      "type": "function",
      "payable": true
    },
    {
      "inputs": [],
      "name": "checkBalance",
      "outputs": [
        {
          "internalType": "uint256",
          "name": "",
          "type": "uint256"
        }
      ],
      "stateMutability": "view",
      "type": "function",
      "constant": true
    },
    {
      "inputs": [],
      "name": "checkEligibleAddress",
      "outputs": [
        {
          "internalType": "address[]",
          "name": "",
          "type": "address[]"
        }
      ],
      "stateMutability": "view",
      "type": "function",
      "constant": true
    }
  ],
  "bytecode": "0x60806040526000600460006101000a81548160ff0219169083151502179055503480156200002c57600080fd5b506040516200230c3803806200230c833981810160405281019062000052919062000565565b6200007262000066620001fd60201b60201c565b6200020560201b60201c565b600180819055506000825111620000c0576040517f08c379a0000000000000000000000000000000000000000000000000000000008152600401620000b7906200062c565b60405180910390fd5b600073ffffffffffffffffffffffffffffffffffffffff168173ffffffffffffffffffffffffffffffffffffffff1603620000fa57600080fd5b815160098190555080600b60006101000a81548173ffffffffffffffffffffffffffffffffffffffff021916908373ffffffffffffffffffffffffffffffffffffffff16021790555081600a90805190602001906200015b929190620002c9565b5060005b8251811015620001f4576001600360008584815181106200018557620001846200064e565b5b602002602001015173ffffffffffffffffffffffffffffffffffffffff1673ffffffffffffffffffffffffffffffffffffffff16815260200190815260200160002060006101000a81548160ff0219169083151502179055508080620001eb90620006b6565b9150506200015f565b50505062000703565b600033905090565b60008060009054906101000a900473ffffffffffffffffffffffffffffffffffffffff169050816000806101000a81548173ffffffffffffffffffffffffffffffffffffffff021916908373ffffffffffffffffffffffffffffffffffffffff1602179055508173ffffffffffffffffffffffffffffffffffffffff168173ffffffffffffffffffffffffffffffffffffffff167f8be0079c531659141344cd1fd0a4f28419497f9722a3daafe3b4186f6b6457e060405160405180910390a35050565b82805482825590600052602060002090810192821562000345579160200282015b82811115620003445782518260006101000a81548173ffffffffffffffffffffffffffffffffffffffff021916908373ffffffffffffffffffffffffffffffffffffffff16021790555091602001919060010190620002ea565b5b50905062000354919062000358565b5090565b5b808211156200037357600081600090555060010162000359565b5090565b6000604051905090565b600080fd5b600080fd5b600080fd5b6000601f19601f8301169050919050565b7f4e487b7100000000000000000000000000000000000000000000000000000000600052604160045260246000fd5b620003db8262000390565b810181811067ffffffffffffffff82111715620003fd57620003fc620003a1565b5b80604052505050565b60006200041262000377565b9050620004208282620003d0565b919050565b600067ffffffffffffffff821115620004435762000442620003a1565b5b602082029050602081019050919050565b600080fd5b600073ffffffffffffffffffffffffffffffffffffffff82169050919050565b6000620004868262000459565b9050919050565b620004988162000479565b8114620004a457600080fd5b50565b600081519050620004b8816200048d565b92915050565b6000620004d5620004cf8462000425565b62000406565b90508083825260208201905060208402830185811115620004fb57620004fa62000454565b5b835b81811015620005285780620005138882620004a7565b845260208401935050602081019050620004fd565b5050509392505050565b600082601f8301126200054a57620005496200038b565b5b81516200055c848260208601620004be565b91505092915050565b600080604083850312156200057f576200057e62000381565b5b600083015167ffffffffffffffff811115620005a0576200059f62000386565b5b620005ae8582860162000532565b9250506020620005c185828601620004a7565b9150509250929050565b600082825260208201905092915050565b7f4e6f205061796565730000000000000000000000000000000000000000000000600082015250565b600062000614600983620005cb565b91506200062182620005dc565b602082019050919050565b60006020820190508181036000830152620006478162000605565b9050919050565b7f4e487b7100000000000000000000000000000000000000000000000000000000600052603260045260246000fd5b7f4e487b7100000000000000000000000000000000000000000000000000000000600052601160045260246000fd5b6000819050919050565b6000620006c382620006ac565b91507fffffffffffffffffffffffffffffffffffffffffffffffffffffffffffffffff8203620006f857620006f76200067d565b5b600182019050919050565b611bf980620007136000396000f3fe6080604052600436106100fe5760003560e01c80638da5cb5b11610095578063bf85e62811610064578063bf85e62814610327578063c71daccb14610350578063d0e30db01461037b578063e919ecad14610385578063f2fde38b146103b0576100fe565b80638da5cb5b146102695780639c1ebdad14610294578063ac3fd873146102bf578063b35da915146102fc576100fe565b8063583ab57e116100d1578063583ab57e146101bf578063715018a6146101fc57806378e97925146102135780637a637f1a1461023e576100fe565b806303ff5e73146101035780630fb5a6b41461012e5780631916558714610159578063310441fa14610182575b600080fd5b34801561010f57600080fd5b506101186103d9565b604051610125919061112f565b60405180910390f35b34801561013a57600080fd5b506101436103df565b604051610150919061112f565b60405180910390f35b34801561016557600080fd5b50610180600480360381019061017b91906111ad565b6103e5565b005b34801561018e57600080fd5b506101a960048036038101906101a491906111ad565b610651565b6040516101b691906111f5565b60405180910390f35b3480156101cb57600080fd5b506101e660048036038101906101e191906111ad565b610671565b6040516101f3919061112f565b60405180910390f35b34801561020857600080fd5b506102116106e7565b005b34801561021f57600080fd5b506102286106fb565b604051610235919061112f565b60405180910390f35b34801561024a57600080fd5b50610253610701565b604051610260919061112f565b60405180910390f35b34801561027557600080fd5b5061027e610707565b60405161028b919061121f565b60405180910390f35b3480156102a057600080fd5b506102a9610730565b6040516102b6919061112f565b60405180910390f35b3480156102cb57600080fd5b506102e660048036038101906102e191906111ad565b6107df565b6040516102f3919061112f565b60405180910390f35b34801561030857600080fd5b506103116107f7565b60405161031e91906112f8565b60405180910390f35b34801561033357600080fd5b5061034e60048036038101906103499190611346565b6107fc565b005b34801561035c57600080fd5b506103656109e9565b604051610372919061112f565b60405180910390f35b610383610a8c565b005b34801561039157600080fd5b5061039a610b5f565b6040516103a7919061112f565b60405180910390f35b3480156103bc57600080fd5b506103d760048036038101906103d291906111ad565b610b65565b005b60065481565b60075481565b60026001540361042a576040517f08c379a0000000000000000000000000000000000000000000000000000000008152600401610421906113e3565b60405180910390fd5b600260018190555060011515600360008373ffffffffffffffffffffffffffffffffffffffff1673ffffffffffffffffffffffffffffffffffffffff16815260200190815260200160002060009054906101000a900460ff161515146104c5576040517f08c379a00000000000000000000000000000000000000000000000000000000081526004016104bc9061144f565b60405180910390fd5b6000610534600260008473ffffffffffffffffffffffffffffffffffffffff1673ffffffffffffffffffffffffffffffffffffffff16815260200190815260200160002054610526600954610518610730565b610be890919063ffffffff16565b610bfe90919063ffffffff16565b905061058881600260008573ffffffffffffffffffffffffffffffffffffffff1673ffffffffffffffffffffffffffffffffffffffff16815260200190815260200160002054610c1490919063ffffffff16565b600260008473ffffffffffffffffffffffffffffffffffffffff1673ffffffffffffffffffffffffffffffffffffffff168152602001908152602001600020819055506105f8600b60009054906101000a900473ffffffffffffffffffffffffffffffffffffffff168383610c2a565b8173ffffffffffffffffffffffffffffffffffffffff167f1c5fa20993de5b6a904303b0a21eeb8c36693824cc7f2aba49926381621767e58260405161063e919061112f565b60405180910390a2506001808190555050565b60036020528060005260406000206000915054906101000a900460ff1681565b60006106e0600260008473ffffffffffffffffffffffffffffffffffffffff1673ffffffffffffffffffffffffffffffffffffffff168152602001908152602001600020546106d26009546106c4610730565b610be890919063ffffffff16565b610bfe90919063ffffffff16565b9050919050565b6106ef610cb0565b6106f96000610d2e565b565b60055481565b60085481565b60008060009054906101000a900473ffffffffffffffffffffffffffffffffffffffff16905090565b600060011515600460009054906101000a900460ff16151514610788576040517f08c379a000000000000000000000000000000000000000000000000000000000815260040161077f906114bb565b60405180910390fd5b600042905060065442111561079d5760065490505b6107d96008546107cb603c6107bd60055486610bfe90919063ffffffff16565b610be890919063ffffffff16565b610df290919063ffffffff16565b91505090565b60026020528060005260406000206000915090505481565b606090565b610804610cb0565b426108188342610c1490919063ffffffff16565b11610858576040517f08c379a000000000000000000000000000000000000000000000000000000000815260040161084f90611527565b60405180910390fd5b6000811161089b576040517f08c379a000000000000000000000000000000000000000000000000000000000815260040161089290611593565b60405180910390fd5b426005819055506108b58242610c1490919063ffffffff16565b600681905550806007819055506001600460006101000a81548160ff02191690831515021790555061099e603c61099084600b60009054906101000a900473ffffffffffffffffffffffffffffffffffffffff1673ffffffffffffffffffffffffffffffffffffffff166370a08231306040518263ffffffff1660e01b8152600401610941919061121f565b602060405180830381865afa15801561095e573d6000803e3d6000fd5b505050506040513d601f19601f8201168201806040525081019061098291906115c8565b610be890919063ffffffff16565b610df290919063ffffffff16565b6008819055507f65ea327738ef00d189846de71da130b6b863a715475fef1007cfcdebe901c9c36005546006546007546040516109dd939291906115f5565b60405180910390a15050565b6000600b60009054906101000a900473ffffffffffffffffffffffffffffffffffffffff1673ffffffffffffffffffffffffffffffffffffffff166370a08231306040518263ffffffff1660e01b8152600401610a46919061121f565b602060405180830381865afa158015610a63573d6000803e3d6000fd5b505050506040513d601f19601f82011682018060405250810190610a8791906115c8565b905090565b610a94610cb0565b610b5d600b60009054906101000a900473ffffffffffffffffffffffffffffffffffffffff163330600b60009054906101000a900473ffffffffffffffffffffffffffffffffffffffff1673ffffffffffffffffffffffffffffffffffffffff166370a08231336040518263ffffffff1660e01b8152600401610b17919061121f565b602060405180830381865afa158015610b34573d6000803e3d6000fd5b505050506040513d601f19601f82011682018060405250810190610b5891906115c8565b610e08565b565b60095481565b610b6d610cb0565b600073ffffffffffffffffffffffffffffffffffffffff168173ffffffffffffffffffffffffffffffffffffffff1603610bdc576040517f08c379a0000000000000000000000000000000000000000000000000000000008152600401610bd39061169e565b60405180910390fd5b610be581610d2e565b50565b60008183610bf6919061171c565b905092915050565b60008183610c0c919061174d565b905092915050565b60008183610c229190611781565b905092915050565b610cab8363a9059cbb60e01b8484604051602401610c499291906117b5565b604051602081830303815290604052907bffffffffffffffffffffffffffffffffffffffffffffffffffffffff19166020820180517bffffffffffffffffffffffffffffffffffffffffffffffffffffffff8381831617835250505050610e91565b505050565b610cb8610f58565b73ffffffffffffffffffffffffffffffffffffffff16610cd6610707565b73ffffffffffffffffffffffffffffffffffffffff1614610d2c576040517f08c379a0000000000000000000000000000000000000000000000000000000008152600401610d239061182a565b60405180910390fd5b565b60008060009054906101000a900473ffffffffffffffffffffffffffffffffffffffff169050816000806101000a81548173ffffffffffffffffffffffffffffffffffffffff021916908373ffffffffffffffffffffffffffffffffffffffff1602179055508173ffffffffffffffffffffffffffffffffffffffff168173ffffffffffffffffffffffffffffffffffffffff167f8be0079c531659141344cd1fd0a4f28419497f9722a3daafe3b4186f6b6457e060405160405180910390a35050565b60008183610e00919061184a565b905092915050565b610e8b846323b872dd60e01b858585604051602401610e29939291906118a4565b604051602081830303815290604052907bffffffffffffffffffffffffffffffffffffffffffffffffffffffff19166020820180517bffffffffffffffffffffffffffffffffffffffffffffffffffffffff8381831617835250505050610e91565b50505050565b6000610ef3826040518060400160405280602081526020017f5361666545524332303a206c6f772d6c6576656c2063616c6c206661696c65648152508573ffffffffffffffffffffffffffffffffffffffff16610f609092919063ffffffff16565b9050600081511115610f535780806020019051810190610f139190611907565b610f52576040517f08c379a0000000000000000000000000000000000000000000000000000000008152600401610f49906119a6565b60405180910390fd5b5b505050565b600033905090565b6060610f6f8484600085610f78565b90509392505050565b606082471015610fbd576040517f08c379a0000000000000000000000000000000000000000000000000000000008152600401610fb490611a38565b60405180910390fd5b610fc68561108c565b611005576040517f08c379a0000000000000000000000000000000000000000000000000000000008152600401610ffc90611aa4565b60405180910390fd5b6000808673ffffffffffffffffffffffffffffffffffffffff16858760405161102e9190611b35565b60006040518083038185875af1925050503d806000811461106b576040519150601f19603f3d011682016040523d82523d6000602084013e611070565b606091505b50915091506110808282866110af565b92505050949350505050565b6000808273ffffffffffffffffffffffffffffffffffffffff163b119050919050565b606083156110bf5782905061110f565b6000835111156110d25782518084602001fd5b816040517f08c379a00000000000000000000000000000000000000000000000000000000081526004016111069190611ba1565b60405180910390fd5b9392505050565b6000819050919050565b61112981611116565b82525050565b60006020820190506111446000830184611120565b92915050565b600080fd5b600073ffffffffffffffffffffffffffffffffffffffff82169050919050565b600061117a8261114f565b9050919050565b61118a8161116f565b811461119557600080fd5b50565b6000813590506111a781611181565b92915050565b6000602082840312156111c3576111c261114a565b5b60006111d184828501611198565b91505092915050565b60008115159050919050565b6111ef816111da565b82525050565b600060208201905061120a60008301846111e6565b92915050565b6112198161116f565b82525050565b60006020820190506112346000830184611210565b92915050565b600081519050919050565b600082825260208201905092915050565b6000819050602082019050919050565b61126f8161116f565b82525050565b60006112818383611266565b60208301905092915050565b6000602082019050919050565b60006112a58261123a565b6112af8185611245565b93506112ba83611256565b8060005b838110156112eb5781516112d28882611275565b97506112dd8361128d565b9250506001810190506112be565b5085935050505092915050565b60006020820190508181036000830152611312818461129a565b905092915050565b61132381611116565b811461132e57600080fd5b50565b6000813590506113408161131a565b92915050565b6000806040838503121561135d5761135c61114a565b5b600061136b85828601611331565b925050602061137c85828601611331565b9150509250929050565b600082825260208201905092915050565b7f5265656e7472616e637947756172643a207265656e7472616e742063616c6c00600082015250565b60006113cd601f83611386565b91506113d882611397565b602082019050919050565b600060208201905081810360008301526113fc816113c0565b9050919050565b7f4e6f7420456c696769626c650000000000000000000000000000000000000000600082015250565b6000611439600c83611386565b915061144482611403565b602082019050919050565b600060208201905081810360008301526114688161142c565b9050919050565b7f56657374696e67206e6f74207374617274656400000000000000000000000000600082015250565b60006114a5601383611386565b91506114b08261146f565b602082019050919050565b600060208201905081810360008301526114d481611498565b9050919050565b7f53746f702074696d65206e6f7420616363657074656400000000000000000000600082015250565b6000611511601683611386565b915061151c826114db565b602082019050919050565b6000602082019050818103600083015261154081611504565b9050919050565b7f5a65726f2063616e6e6f742062652076616c7565000000000000000000000000600082015250565b600061157d601483611386565b915061158882611547565b602082019050919050565b600060208201905081810360008301526115ac81611570565b9050919050565b6000815190506115c28161131a565b92915050565b6000602082840312156115de576115dd61114a565b5b60006115ec848285016115b3565b91505092915050565b600060608201905061160a6000830186611120565b6116176020830185611120565b6116246040830184611120565b949350505050565b7f4f776e61626c653a206e6577206f776e657220697320746865207a65726f206160008201527f6464726573730000000000000000000000000000000000000000000000000000602082015250565b6000611688602683611386565b91506116938261162c565b604082019050919050565b600060208201905081810360008301526116b78161167b565b9050919050565b7f4e487b7100000000000000000000000000000000000000000000000000000000600052601260045260246000fd5b7f4e487b7100000000000000000000000000000000000000000000000000000000600052601160045260246000fd5b600061172782611116565b915061173283611116565b925082611742576117416116be565b5b828204905092915050565b600061175882611116565b915061176383611116565b925082820390508181111561177b5761177a6116ed565b5b92915050565b600061178c82611116565b915061179783611116565b92508282019050808211156117af576117ae6116ed565b5b92915050565b60006040820190506117ca6000830185611210565b6117d76020830184611120565b9392505050565b7f4f776e61626c653a2063616c6c6572206973206e6f7420746865206f776e6572600082015250565b6000611814602083611386565b915061181f826117de565b602082019050919050565b6000602082019050818103600083015261184381611807565b9050919050565b600061185582611116565b915061186083611116565b9250817fffffffffffffffffffffffffffffffffffffffffffffffffffffffffffffffff0483118215151615611899576118986116ed565b5b828202905092915050565b60006060820190506118b96000830186611210565b6118c66020830185611210565b6118d36040830184611120565b949350505050565b6118e4816111da565b81146118ef57600080fd5b50565b600081519050611901816118db565b92915050565b60006020828403121561191d5761191c61114a565b5b600061192b848285016118f2565b91505092915050565b7f5361666545524332303a204552433230206f7065726174696f6e20646964206e60008201527f6f74207375636365656400000000000000000000000000000000000000000000602082015250565b6000611990602a83611386565b915061199b82611934565b604082019050919050565b600060208201905081810360008301526119bf81611983565b9050919050565b7f416464726573733a20696e73756666696369656e742062616c616e636520666f60008201527f722063616c6c0000000000000000000000000000000000000000000000000000602082015250565b6000611a22602683611386565b9150611a2d826119c6565b604082019050919050565b60006020820190508181036000830152611a5181611a15565b9050919050565b7f416464726573733a2063616c6c20746f206e6f6e2d636f6e7472616374000000600082015250565b6000611a8e601d83611386565b9150611a9982611a58565b602082019050919050565b60006020820190508181036000830152611abd81611a81565b9050919050565b600081519050919050565b600081905092915050565b60005b83811015611af8578082015181840152602081019050611add565b60008484015250505050565b6000611b0f82611ac4565b611b198185611acf565b9350611b29818560208601611ada565b80840191505092915050565b6000611b418284611b04565b915081905092915050565b600081519050919050565b6000601f19601f8301169050919050565b6000611b7382611b4c565b611b7d8185611386565b9350611b8d818560208601611ada565b611b9681611b57565b840191505092915050565b60006020820190508181036000830152611bbb8184611b68565b90509291505056fea2646970667358221220703d018bcf0e8e5c027ccbf0de3aefb6546f59679ba07b9ba26a268d83260d9d64736f6c63430008100033",
  "immutableReferences": {},
  "source": "// SPDX-License-Identifier: MIT\r\npragma solidity ^0.8.4;\r\n\r\nimport \"@openzeppelin/contracts/token/ERC20/IERC20.sol\";\r\nimport \"@openzeppelin/contracts/token/ERC20/utils/SafeERC20.sol\";\r\nimport \"@openzeppelin/contracts/security/ReentrancyGuard.sol\";\r\nimport \"@openzeppelin/contracts/access/Ownable.sol\";\r\nimport \"@openzeppelin/contracts/utils/math/Math.sol\";\r\nimport \"@openzeppelin/contracts/utils/math/SafeMath.sol\";\r\n\r\ncontract Vesting is Ownable, ReentrancyGuard{\r\n    using SafeMath for uint;\r\n    using SafeERC20 for IERC20;\r\n\r\n    mapping(address => uint) public totalTokenWithdrawn;\r\n    mapping(address => bool) public payees;\r\n    bool start = false;\r\n    uint public startTime;\r\n    uint public stopTime;\r\n    uint public duration;\r\n    uint public tokenToBeReleasedPerDuration;\r\n    uint public payeesLength;\r\n    address[] private payeesAddress;\r\n    IERC20 token; \r\n\r\n    constructor(address[] memory _payees,address _token) {\r\n        require(_payees.length > 0,\"No Payees\");\r\n        require(_token != address(0x0));\r\n        payeesLength = _payees.length;\r\n        token = IERC20(_token);\r\n        payeesAddress = _payees;\r\n        for(uint i = 0; i < _payees.length; i++){\r\n            payees[_payees[i]] = true;\r\n        }\r\n    }\r\n\r\n    event VestingStarted(uint _startTime, uint _stopTime, uint _duration);\r\n    event TokenReleased(uint _amount, address indexed payee);\r\n\r\n    //12 Months - 31556926 in seconds\r\n    //1 minute - 60 in seconds\r\n    function startVesting(uint _stopTime,uint _duration) public onlyOwner {\r\n        require(block.timestamp.add(_stopTime) > block.timestamp,\"Stop time not accepted\");\r\n        require(_duration > 0,\"Zero cannot be value\");\r\n        startTime = block.timestamp;\r\n        stopTime = block.timestamp.add(_stopTime);\r\n        duration = _duration;\r\n        start = true;\r\n        tokenToBeReleasedPerDuration = (token.balanceOf(address(this)).div(_stopTime)).mul(60);\r\n        emit VestingStarted(startTime, stopTime, duration);\r\n    }\r\n\r\n    function calculateTotalVestedAmount() public view returns(uint){\r\n        require(start == true,\"Vesting not started\");\r\n        uint time = block.timestamp;\r\n        if(block.timestamp > stopTime){\r\n            time = stopTime;\r\n        }\r\n        return(((time.sub(startTime)).div(60)).mul(tokenToBeReleasedPerDuration));\r\n    }\r\n\r\n\r\n    function release(address _payee) public nonReentrant{\r\n        require(payees[_payee] == true,\"Not Eligible\");\r\n        uint _amount = calculateTotalVestedAmount().div(payeesLength).sub(totalTokenWithdrawn[_payee]);\r\n        totalTokenWithdrawn[_payee] = totalTokenWithdrawn[_payee].add(_amount);\r\n        SafeERC20.safeTransfer(token, _payee, _amount);\r\n        emit TokenReleased(_amount, _payee);\r\n    }\r\n\r\n    function tokenToBeReleased(address _payee) public view returns(uint){\r\n        return(calculateTotalVestedAmount().div(payeesLength).sub(totalTokenWithdrawn[_payee]));\r\n    }\r\n\r\n    function deposit() payable public onlyOwner{\r\n        SafeERC20.safeTransferFrom(token,msg.sender,address(this), token.balanceOf(msg.sender));\r\n    }\r\n\r\n    function checkBalance() public view returns(uint){\r\n        return(token.balanceOf(address(this)));\r\n    }\r\n\r\n    function checkEligibleAddress() public view returns(address[] memory){\r\n\r\n    }\r\n}\r\n//[\"0xAb8483F64d9C6d1EcF9b849Ae677dD3315835cb2\",\"0x4B20993Bc481177ec7E8f571ceCaE8A9e22C02db\"]",
  "sourcePath": "D:\\Ethereum\\Vesting\\contracts\\Vesting.sol",
  "compiler": {
    "name": "solc",
    "version": "0.8.16+commit.07a7930e.Emscripten.clang"
  },
  "schemaVersion": "3.4.9",
  "updatedAt": "2022-08-21T21:14:58.588Z",
  "networkType": "ethereum",
  "devdoc": {
    "kind": "dev",
    "methods": {
      "owner()": {
        "details": "Returns the address of the current owner."
      },
      "renounceOwnership()": {
        "details": "Leaves the contract without owner. It will not be possible to call `onlyOwner` functions anymore. Can only be called by the current owner. NOTE: Renouncing ownership will leave the contract without an owner, thereby removing any functionality that is only available to the owner."
      },
      "transferOwnership(address)": {
        "details": "Transfers ownership of the contract to a new account (`newOwner`). Can only be called by the current owner."
      }
    },
    "version": 1
  },
  "userdoc": {
    "kind": "user",
    "methods": {},
    "version": 1
  }
}